S01C00004C6F72615F4D6F6E69746F725F50726F6A6563742E73726563FD
S11300000C94B1000C94CE000C94CE000C94CE0051
S11300100C94CE000C94CE000C94CE000C94CE0024
S11300200C94CE000C94CE000C94CE000C94CE060E
S11300300C94CE000C94CE000C94CE000C94CE0004
S11300400C94CE000C94CE000C9456070C94CE0065
S11300500C94CE000C94CE000C94CE000C94CE00E4
S11300600C94CE000C94CE0000407A10F35A00A0F9
S1130070724E18090010A5D4E80000E8764817006D
S113008000E40B54020000CA9A3B000000E1F505AD
S1130090000080969800000040420F000000A086F7
S11300A001000000102700000000E8030000000029
S11300B06400000000000A000000000001000000CD
S11300C000002C76D888DC674F0823DFC1DFAE59E7
S11300D0E1B1B796E5E3E453C63AE651997696E87A
S11300E0E6C28426EB898C9B62ED407C6FFCEFBCFE
S11300F09C9F40F2BAA56FA5F490055A2AF75C9329
S11301006B6CF9676DC11BFCE0E40D47FEF520E65E
S1130110B500D0ED902E0300943577050080841E41
S1130120080000204E0A000000C80C333333330F9C
S1130130986E12831141EF8D2114893BE65516CF39
S1130140FEE6DB18D1844B381BF77C1D901DA4BB45
S1130150E424203284725E228100C9F124ECA1E5FA
S11301603D2711241FBECFEFD8E0DEBFCDBF11E085
S1130170A0E0B1E0E4EEFCE102C005900D92A233F0
S1130180B107D9F721E0A2E3B1E001C01D92A43B7D
S1130190B207E1F70E947E040C94700E0C940000E8
S11301A0FC0120E064C095B59E7F95BD95B5926035
S11301B095BD95B59B7F95BD189903C096B59D389F
S11301C0D8F386B5873970F081E08093350185B521
S11301D08E7F85BD85B58D7F85BD85B58B7F85BDBE
S11301E016BC089585B58E7F85BD85B58D7F85BD8B
S11301F085B58B7F85BD16BC95B59E7F95BD95B5A0
S1130200926095BD95B59B7F95BD189B03C096B52F
S11302109739D8F386B58B3A70F081E08093350135
S113022085B58E7F85BD85B58D7F85BD85B58B7F75
S113023085BD16BC089586B5823470F047E050E061
S1130240421B510981E090E002C0880F991F4A9532
S1130250E2F79081892B808385B58E7F85BD85B536
S11302608D7F85BD85B58B7F85BD16BC2F5F2830FE
S113027008F499CF089585B1816085B980EA8A959B
S1130280F1F784B18E7F84B985B58E7F85BD85B540
S1130290826085BD85B58B7F85BD189903C086B501
S11302A0883CD8F386B5883C98F585B58E7F85BDA6
S11302B085B58D7F85BD85B58B7F85BD16BC85B520
S11302C08E7F85BD85B5826085BD85B58B7F85BDF7
S11302D0189B03C086B5883CD8F386B5883C60F487
S11302E085B58E7F85BD85B58D7F85BD85B58B7FB5
S11302F085BD16BC81E0089585B58E7F85BD85B525
S11303008D7F85BD85B58B7F85BD16BC80E0089546
S113031085B58E7F85BD85B58D7F85BD85B58B7F84
S113032085BD16BC80E008951092350184B18160CA
S113033084B985B18E7F85B908958F929F92AF92CB
S1130340BF92CF92DF92EF92FF921F93CF93DF93EE
S113035000D000D01F92CDB7DEB76C017B011982AB
S11303601A821B821C821D820E943B01882309F48D
S113037084C010E03BC01230E9F028F4112341F0AE
S1130380113079F032C01330F1F0143029F12DC05E
S1130390CE0101960E94D00080913501813029F56B
S11303A063C0CE0102960E94D00080913501813055
S11303B0E1F45CC0CE0103960E94D0008091350127
S11303C0813099F455C0CE0104960E94D0008091EA
S11303D03501813051F44EC0CE0105960E94D00003
S11303E080913501813009F447C01F5F153018F240
S11303F06C8170E080E090E00E94590820E030E0D9
S113040048EC52E40E94E7074B015C016B8170E009
S113041080E090E00E945B08A50194010E947B07A4
S1130420F60160837183828393836A8170E080E044
S113043090E00E94590820E030E048EC52E40E9429
S1130440E7074B015C01698170E080E090E00E9465
S11304505B08A50194010E947B07F7016083718307
S11304608283938381E009C080E007C080E005C0F7
S113047080E003C080E001C080E00F900F900F90F7
S11304800F900F90DF91CF911F91FF90EF90DF902D
S1130490CF90BF90AF909F908F900895DB01FC01A7
S11304A0E40FF11D30E009C0CF01019620812D93A6
S11304B021812C3209F43F5FFC013830A8F3089500
S11304C0CF93DF93EC010E941309009719F08C1B62
S11304D09D0B02C08FEF9FEFDF91CF910895CF93D3
S11304E0DF93CDB7DEB76E970FB6F894DEBF0FBEBD
S11304F0CDBFBC019FE0FE013196DF01892F1D9223
S11305008A95E9F79E01205F3F4FD9011D929A9584
S1130510E9F7CF010E940C0980E090E012C0E1E00D
S1130520F0E0EC0FFD1FE80FF11D20812E3241F0A9
S1130530E0E1F0E0EC0FFD1FE90FF11D20839F5F68
S11305408F5F282F30E0DE011196FD01019000201D
S1130550E9F73197EA1BFB0BE217F30700F78E016B
S1130560005F1F4FB801CD010E940C098FE0F80114
S113057011928A95E9F7FFCFEF92FF920F931F93A1
S1130580CF93DF93CDB7DEB7C055D1090FB6F8943A
S1130590DEBF0FBECDBF8C017B01FE01319680E52D
S11305A0DF011D928A95E9F760E071E0C8010E94BD
S11305B060028F3FBFEF9B0709F470C0482FBE0154
S11305C06F5F7F4FC8010E944E0266E071E0CE016A
S11305D001960E94070910E030C01530B1F028F4EC
S11305E0113041F0133059F021C01630A1F017300A
S11305F0C1F01CC0BC01C7010E940C0917C0BC019A
S1130600C70144960E940C0911C0BC01C701889619
S11306100E940C090BC0BC01C701CC960E940C09B6
S113062005C0BC01C701CF960E940C0966E071E0C9
S113063080E090E00E9407091F5F009771F6F701C0
S11306408489882379F080A5882361F084AD882388
S113065049F08081882331F061E371E0C701449659
S11306600E946F02D701549689E0E8E0F1E001901E
S11306700D928A95E1F7D701989689E0E8E0F1E0D8
S113068001900D928A95E1F789E0E8E0F1E0D70165
S113069001900D928A95E1F78FEF9FEFC05BDF4FDA
S11306A00FB6F894DEBF0FBECDBFDF91CF911F917F
S11306B00F91FF90EF9008951092B90088E4809311
S11306C0B800089594EA9093BC009091BC009923DB
S11306D0E4F79091B900987F983011F0903191F43B
S11306E08093BB0084E88093BC008091BC00882385
S11306F0E4F78091B900887F883131F0803431F497
S113070080E0089581E0089580E0089581E00895EF
S113071084E98093BC008091BC0084FDFCCF0895E3
S11307208093BB0084E88093BC008091BC00882344
S1130730E4F78091B900887F883211F081E0089550
S113074080E00895CF93C82F8EE40E9462038C2F1B
S11307500E9490030E948803CF910895CF93C09183
S11307603601C82B8C2F84600E94A2038FE391E092
S11307700197F1F700C000008C2F8B7F0E94A20329
S11307808FE391E00197F1F700C00000CF91089545
S1130790CF93C82F10923601807F0E94AE038C2F16
S11307A08295807F0E94AE03CF910895CF93C82F86
S11307B081E0809336018C2F807F0E94AE038C2FC2
S11307C08295807F0E94AE03CF9108950E945C03BE
S11307D02FEF86E791E0215080409040E1F700C080
S11307E0000083E00E94C8038FE19EE40197F1F7C3
S11307F000C0000083E00E94C8038FE19EE40197DB
S1130800F1F700C0000083E00E94C8038FE19EE47A
S11308100197F1F700C0000082E00E94C8038FE155
S11308209EE40197F1F700C0000088E20E94C8032B
S11308309FEF20E782E0915020408040E1F700C024
S113084000008CE00E94C8039FEF20E782E09150F3
S113085020408040E1F700C0000081E00E94C8030E
S11308609FEF20E782E0915020408040E1F700C0F4
S1130870000086E00E94C8039FEF20E782E09150C9
S113088020408040E1F700C0000008950F931F93BB
S1130890CF93DF938C01C0E0D0E003C00E94D60365
S11308A02196F801EC0FFD1F80818111F7CFDF91B4
S11308B0CF911F910F910895833049F0843061F0F6
S11308C0823079F48FEB860F0E94C803089583E980
S11308D0860F0E94C803089583ED860F0E94C80303
S11308E008958FE7860F0E94C803089581E00E944F
S11308F0C80385ED8A95F1F700000895CF93DF933F
S1130900CDB7DEB7CD53D1400FB6F894DEBF0FBEDE
S1130910CDBF19821A821B821C821D821E821F82F5
S11309201886FE01399683E5DF011D928A95E9F761
S1130930ED5AFF4F86E0DF01282F1D922A95E9F733
S11309403696DF011D928A95E9F7369688E1DF0134
S11309501D928A95E9F7789688E7DF011D928A95BA
S1130960E9F7E858FF4F86E1DF01282F1D922A9509
S1130970E9F77696DF01282F1D922A95E9F77696F6
S1130980DF011D928A95E9F784B1826084B985B14B
S11309908D7F85B984B1846084B985B18B7F85B935
S11309A084B1806184B985B18F7E85B90E94E603E4
S11309B061E081E00E945C0481E191E00E944604D0
S11309C0BFEF2BE732E9B15020403040E1F700C0DF
S11309D000000E9476040E94F3060E9413070E94FE
S11309E02E077894C12CD12C7601812C912C5401A2
S11309F0312CC65CDE4F188219821A821B82CA53BC
S1130A00D140412C512C32018091B301813009F045
S1130A104BC0BE01675F7F4F8BE391E00E94BC0235
S1130A2089858823D9F18D8D8823C1F189A98823EB
S1130A30A9F129968FAD2997882381F18E01075F4B
S1130A401F4F1F930F93CE0188599F4F9F938F93EE
S1130A500E945409CE014D969F938F9385529F4FC8
S1130A609F938F930E945409CE01C1969F938F93B5
S1130A7083529F4F9F938F930E945409015C1F4F91
S1130A801F930F93CE018C5D9E4F9F938F930E9473
S1130A9054090FB6F894DEBF0FBECDBF95B184E004
S1130AA0892785B91092B30180913701909138015B
S1130AB0A0913901B0913A0184199509A609B709A1
S1130AC0883E9340A105B10518F481E0381240C076
S1130AD0311014C00E9494012091370130913801E3
S1130AE04091390150913A01C65CDE4F2883398325
S1130AF04A835B83CA53D1403324339480913701B2
S1130B0090913801A0913901B0913A01C65CDE4F51
S1130B10288139814A815B81CA53D140821B930B5E
S1130B20A40BB50B4297A105B10540F0BE016B5F64
S1130B307F4FCE0101960E949D01312C311008C0D7
S1130B4040903701509038016090390170903A011B
S1130B508091370190913801A0913901B0913A0107
S1130B6088199909AA09BB09803D9740A105B105D7
S1130B7008F45AC04E014CE5840E911C69817A81B7
S1130B808B819C81840122E042E00E94E7085E019F
S1130B9052E6A50EB11C6D817E818F8198858501F9
S1130BA022E042E00E94E708BF92AF929F928F92A8
S1130BB0CE018C5D9E4F9F938F9346979F938F9307
S1130BC046979F938F938EE191E09F938F93025E5C
S1130BD01F4F1F930F930E945409980143E065E24D
S1130BE070E084E290E00E9433062FE231E043E0BB
S1130BF065E270E084E290E00E94330695B182E001
S1130C00892785B9CE0188599F4F0E944604809058
S1130C10370190903801A0903901B0903A010FB695
S1130C20F894DEBF0FBECDBF80913701909138019B
S1130C30A0913901B0913A018C199D09AE09BF09FF
S1130C408A3F9105A105B10508F4DECE95B180E196
S1130C50892785B9C0903701D0903801E0903901D7
S1130C60F0903A01D1CECF93DF93EC01FB01D9018F
S1130C7021E030E0C90102C0880F991F4A95E2F7CC
S1130C80AC01282F9881942B98838081482B408332
S1130C9031C0422F40958081842380838FE991E085
S1130CA00197F1F700C0000030E018C08C9190E08B
S1130CB0032E02C0959587950A94E2F780FF04C03D
S1130CC08081822B808303C08081842380838FE989
S1130CD091E00197F1F700C000003F5F383030F336
S1130CE08081822B80838FE991E00197F1F700C026
S1130CF0000011968C918111CCCFDF91CF91089592
S1130D008034910539F130F48130910559F0089718
S1130D10A9F00895811521E0920741F181159440CD
S1130D2089F10895E1E8F0E0808181608083808129
S1130D308D7F808380818B7F80830895E1E8F0E05C
S1130D4080818E7F808380818260808380818B7F9D
S1130D5080830895E1E8F0E0808181608083808170
S1130D608260808380818B7F80830895E1E8F0E056
S1130D7080818E7F808380818D7F80838081846069
S1130D8080830895E1E8F0E0808181608083808140
S1130D908D7F808380818460808308951F920F9269
S1130DA00FB60F9211248F939F93AF93BF938091AB
S1130DB0370190913801A0913901B0913A0101961F
S1130DC0A11DB11D8093370190933801A09339017F
S1130DD0B0933A01BF91AF919F918F910F900FBE45
S1130DE00F901F901895E0E8F0E080818E7F80835B
S1130DF080818D7F8083E1E8F0E08081886080835A
S1130E0080818F7E808380ED97E09093890080932A
S1130E10880088E090E00E948006EFE6F0E08081A0
S1130E20826080830895109234011092B301E2EC41
S1130E30F0E080818260808380818460808387E6A3
S1130E4090E09093C5008093C400E1ECF0E08081D1
S1130E50886080838081806180830895E1ECF0E084
S1130E608081806880830895E0913401F0E080916E
S1130E70C600E55CFE4F8083E0913401F0E0E55C60
S1130E80FE4F80818D3031F0809134018F5F8093EB
S1130E9034010895E0913401F0E0E55CFE4F1082E6
S1130EA081E08093B3011092340108951F920F9250
S1130EB00FB60F9211242F933F934F935F936F9329
S1130EC07F938F939F93AF93BF93EF93FF930E946E
S1130ED03407FF91EF91BF91AF919F918F917F91D3
S1130EE06F915F914F913F912F910F900FBE0F9093
S1130EF01F9018955058BB27AA270E9492070C945C
S1130F00AD080E949F0838F00E94A60820F039F42A
S1130F109F3F19F426F40C949C080EF4E095E7FB2B
S1130F200C949608E92F0E94BE0858F3BA1762077A
S1130F3073078407950720F079F4A6F50C94E0086C
S1130F400EF4E0950B2EBA2FA02D0B01B9019001E0
S1130F500C01CA01A0011124FF27591B99F0593F24
S1130F6050F4503E68F11A16F040A22F232F342F6C
S1130F704427585FF3CF469537952795A795F040BA
S1130F805395C9F77EF41F16BA0B620B730B840BCF
S1130F90BAF09150A1F0FF0FBB1F661F771F881F87
S1130FA0C2F70EC0BA0F621F731F841F48F48795DF
S1130FB077956795B795F7959E3F08F0B0CF9395D1
S1130FC0880F08F09927EE0F9795879508950E944A
S1130FD0FB070C94AD080E94A60858F00E949F08D5
S1130FE040F029F45F3F29F00C94960851110C94B9
S1130FF0E1080C949C080E94BE0868F39923B1F39D
S1131000552391F3951B550BBB27AA27621773072A
S1131010840738F09F5F5F4F220F331F441FAA1FBE
S1131020A9F335D00E2E3AF0E0E832D0915050407A
S1131030E695001CCAF72BD0FE2F29D0660F771F28
S1131040881FBB1F261737074807AB07B0E809F00E
S1131050BB0B802DBF01FF2793585F4F3AF09E3F93
S1131060510578F00C9496080C94E1085F3FE4F382
S1131070983ED4F3869577956795B795F7959F5FD6
S1131080C9F7880F911D9695879597F90895E1E022
S1131090660F771F881FBB1F621773078407BA0781
S11310A020F0621B730B840BBA0BEE1F88F7E095DC
S11310B00895E89409C097FB3EF490958095709547
S11310C061957F4F8F4F9F4F9923A9F0F92F96E990
S11310D0BB279395F695879577956795B795F11105
S11310E0F8CFFAF4BB0F11F460FF1BC06F5F7F4FA2
S11310F08F4F9F4F16C0882311F096E911C07723B4
S113110021F09EE8872F762F05C0662371F096E8BC
S1131110862F70E060E02AF09A95660F771F881F8B
S1131120DAF7880F9695879597F9089597F99F6749
S113113080E870E060E008959FEF80EC089500245B
S11311400A941616170618060906089500240A9428
S113115012161306140605060895092E0394000CAE
S113116011F4882352F0BB0F40F4BF2B11F460FF3D
S113117004C06F5F7F4F8F4F9F4F089557FD905866
S1131180440F551F59F05F3F71F04795880F97FB47
S1131190991F61F09F3F79F0879508951216130601
S11311A01406551FF2CF4695F1DF08C01616170630
S11311B01806991FF1CF8695710561050894089565
S11311C0E894BB2766277727CB0197F90895EF9218
S11311D00F931F93CF93DF93E80147FD02C034E0E0
S11311E001C034E1042E000C550B57FF03C0519588
S11311F041955109E32E022F242FAE010E94570B73
S1131200CE01DF91CF911F910F91EF90089542E3AA
S113121051E00E942D090895FB01DC0101900D921B
S11312200020E1F70895FB0151915523A9F0BF0176
S1131230DC014D9145174111E1F759F4CD010190BD
S1131240002049F04D9140154111C9F3FB014111B2
S1131250EFCF81E090E001970895FA01A191B08168
S1131260009719F41097E1F0CD01DC01CD010D9048
S1131270002011F4C00113C0FB012191222319F0B5
S11312802015D9F7F3CFFB012191201519F41E92F3
S1131290119606C02223C1F70D900020A1F7D001BA
S11312A0FA01A193B0830895AEE0B0E0EAE5F9E075
S11312B00C94470E0D891E8986E08C831A8309835A
S11312C08FEF9FE79E838D83AE01475E5F4F6F89EB
S11312D0788DCE0101960E947609EF81F885E00FA2
S11312E0F11F10822E96E4E00C94630EABE0B0E0A4
S11312F0ECE7F9E00C94390E6C017B018A01FC01E6
S113130017821682838181FFCCC1CE0101963C01F4
S1131310F6019381F70193FD859193FF81917F01FC
S1131320882309F4BAC1853239F493FD859193FF7A
S113133081917F01853229F4B60190E00E949F0DCE
S1131340E7CF912C212C312CFFE1F315D8F08B320F
S113135079F038F4803279F08332A1F4232D2061BE
S11313601DC08D3261F0803369F4232D216016C0D5
S1131370832D8260382EE32DE4603E2E2AC0F32DA7
S1131380F8601DC037FC2DC020ED280F2A3040F036
S11313908E32B9F436FC81C1232D2064322E19C05B
S11313A036FE06C08AE0989E200D1124922E11C0AC
S11313B0EAE02E9E200D1124222EF32DF0623F2E02
S11313C008C08C3621F4832D8068382E02C08836FC
S11313D041F4F70193FD859193FF81917F01811180
S11313E0B3CF982F9F7D9554933028F40C5F1F4FF3
S11313F09FE399830DC0833631F0833771F08335D1
S113140009F059C021C0F801808189830E5F1F4F04
S113141088248394912C530113C02801F2E04F0EC9
S1131420511CF801A080B18036FE03C0692D70E024
S113143002C06FEF7FEFC5010E94940D4C01820141
S1131440F32DFF773F2E16C0280122E0420E511CD7
S1131450F801A080B18036FE03C0692D70E002C09F
S11314606FEF7FEFC5010E94890D4C01F32DF068E9
S11314703F2E820133FC1BC0822D90E08816990612
S1131480B0F4B60180E290E00E949F0D2A94F4CF5C
S1131490F50137FC859137FE81915F01B60190E03B
S11314A00E949F0D21102A9421E0821A9108811430
S11314B0910471F7E8C0843611F0893641F5F801DA
S11314C037FE07C060817181828193810C5F1F4F59
S11314D008C060817181072E000C880B990B0E5F88
S11314E01F4FF32DFF763F2E97FF09C090958095EF
S11314F0709561957F4F8F4F9F4FF0683F2E2AE084
S113150030E0A3010E94DB0D882E861845C0853784
S113151031F4232D2F7EB22E2AE030E025C0932D06
S1131520997FB92E8F36C1F018F4883579F0B5C09B
S1131530803719F0883721F0B0C0E92FE061BE2E62
S1131540B4FE0DC0FB2DF460BF2E09C034FE0AC0EA
S1131550292F2660B22E06C028E030E005C020E125
S113156030E002C020E132E0F801B7FE07C060813C
S11315707181828193810C5F1F4F06C060817181EC
S113158080E090E00E5F1F4FA3010E94DB0D882EC8
S11315908618FB2DFF773F2E36FE0DC0232D2E7FA0
S11315A0A22E891458F434FE0BC032FC09C0832DDA
S11315B08E7EA82E05C0B82CA32C03C0B82C01C065
S11315C0B92CA4FE0FC0FE01E80DF11D808180330B
S11315D021F49A2D997EA92E09C0A2FE06C0B394C7
S11315E0B39404C08A2D867809F0B394A3FC11C087
S11315F0A0FE06C0B21488F4280C922C9B180EC0CE
S1131600B21460F4B60180E290E00E949F0DB3949E
S1131610F7CFB21418F42B1802C0982C212CA4FE76
S113162010C0B60180E390E00E949F0DA2FE17C097
S1131630A1FC03C088E790E002C088E590E0B60111
S11316400CC08A2D867859F0A1FE02C08BE201C03D
S113165080E2A7FC8DE2B60190E00E949F0D891400
S113166038F4B60180E390E00E949F0D9A94F7CF7E
S11316708A94F301E80DF11D8081B60190E00E9487
S11316809F0D8110F5CF222009F442CEB60180E2ED
S113169090E00E949F0D2A94F6CFF60186819781EF
S11316A002C08FEF9FEF2B96E2E10C94550EA9E058
S11316B0B0E0EDE5FBE00C943F0E6A01122FB02E72
S11316C02BE3201720F0FF24F394F00E02C02CE348
S11316D0F22E0F2D27E0AE014F5F5F4F0E94B10C39
S11316E0BC014981842F8970813031F0E1FC06C04E
S11316F0E0FE06C090E205C09DE203C09BE201C08B
S113170090E05E2D507143FF3CC0911102C083E014
S113171001C084E0811718F4212F281B01C020E0A8
S113172051110BC0F601822F30E2882319F0319356
S11317308150FBCFC20ED11C20E0992329F0D601A1
S11317409C93F60131966F01C6010396E2FE0AC02E
S11317503EE4D6013C9341E411964C9311971296C2
S11317603C9306C03EE6F601308341E64183328372
S1131770FC01322F40E2332309F442C0419331503B
S1131780FACF42FF44C0911102C083E001C084E05B
S1131790811718F4212F281B01C020E051110BC020
S11317A0F601822F30E2882319F031938150FBCF68
S11317B0C20ED11C20E0992329F0D6019C93F60196
S11317C031966F01C6010396E2FE0BC039E4D601DF
S11317D03C933EE411963C93119736E412963C9365
S11317E007C039E6F60130833EE6318336E63283BC
S11317F0FC01322F40E2332319F041933150FBCFE7
S1131800FC01E20FF11D10828EEF9FEFA6C021E0D4
S113181030E0911102C020E030E0161617061CF4E7
S1131820FB01319602C0E1E0F0E02E0F3F1FBB2028
S113183021F0EB2DF0E0319602C0E0E0F0E02E0F55
S11318403F1FE12FF0E02E173F071CF4121B212F3E
S113185001C020E08E2D887159F4F601822F30E208
S1131860882319F031938150FBCFC20ED11C20E0A4
S1131870992329F0D6019C93F60131966F015111F9
S11318800BC0F601822F90E3882319F091938150C5
S1131890FBCFC20ED11C20E00F2D060F9A81342FEE
S11318A0307144FF03C0913309F40150101624F43D
S11318B0093018F008E001C001E0AB0177FF02C075
S11318C040E050E0FB01E41BF50BA1E0B0E0AC0FFD
S11318D0BD1FEA0FFB1F8EE2A82E4B01801A910850
S11318E00B2D10E01195019511094F3FBFEF5B07D8
S11318F021F4D601AC9211966D01641775072CF092
S11319008416950614F4818101C080E34150510985
S11319103196D60111967D014017510724F0D60166
S11319208C936701E2CF6417750739F4963320F47A
S1131930953319F4311101C081E3F6018083F70175
S1131940822F90E2882319F091938150FBCFF70105
S1131950E20FF11D108280E090E02996ECE00C94F7
S11319605B0E283008F027E03327DA01990F311D88
S113197087FD916000966105710539F432602E5F30
S11319803D9330E32A95E1F708959F3F30F0803886
S11319907105610509F03C5F3C5F3D93913008F0AF
S11319A08068911DDF93CF931F930F93FF92EF9263
S11319B0192F987F9695E92F96959695E90FFF270D
S11319C0EE53FF4F99273327EE24FF24A701E701A5
S11319D005900894079428F4360FE71EF81E491F53
S11319E0511D660F771F881F991F0694A1F7059054
S11319F0079428F4E70EF81E491F561FC11D770FE0
S1131A00881F991F661F0694A1F70590079428F470
S1131A10F80E491F561FC71FD11D880F991F661F37
S1131A20771F0694A1F70590079420F4490F561FD9
S1131A30C71FD81F990F661F771F881F0694A9F721
S1131A4084911095177041F0D695C7955795479591
S1131A50F794E7941A95C1F7E8E6F0E068941590D6
S1131A60159135916591959105907FE27395E118F3
S1131A70F10A430B560BC90BD009C0F7E10CF11E58
S1131A80431F561FC91FD01D7EF4703311F48A956D
S1131A90E6CFE894015030F0080F0AF4002702174B
S1131AA008F4202F2395022F7A3328F079E37D93CD
S1131AB02A95E9F710C07D932A9589F6069497959F
S1131AC06795379517951794E118F10A430B560B50
S1131AD0C90BD00998F023957E9173957A3308F059
S1131AE070E37C932013B8F77E9170617D9330F09E
S1131AF0839571E37D9370E32A95E1F71124EF90C8
S1131B00FF900F911F91CF91DF91992787FD9095B9
S1131B100895FC010590615070400110D8F780953C
S1131B2090958E0F9F1F0895FC01615070400190A5
S1131B300110D8F7809590958E0F9F1F08950F93ED
S1131B401F93CF93DF93FB01238121FD03C08FEF0C
S1131B509FEF2CC022FF16C0468157812481358116
S1131B604217530744F4A081B1819D012F5F3F4F79
S1131B70318320838C93268137812F5F3F4F3783B6
S1131B80268314C08B01EC01FB010084F185E02D58
S1131B900995892BE1F6D80116968D919C9117979A
S1131BA0019617969C938E931697CE01DF91CF9151
S1131BB01F910F910895FA01AA27283051F120317D
S1131BC081F1E8946F936E7F6E5F7F4F8F4F9F4FCD
S1131BD0AF4FB1E03ED0B4E03CD0670F781F891F0F
S1131BE09A1FA11D680F791F8A1F911DA11D6A0FDD
S1131BF0711D811D911DA11D20D009F468943F9190
S1131C002AE0269F11243019305D3193DEF6CF018E
S1131C100895462F4770405D4193B3E00FD0C9F754
S1131C20F6CF462F4F70405D4A3318F0495D31FDC1
S1131C304052419302D0A9F7EACFB4E0A695979514
S1131C40879577956795BA95C9F7009761057105EA
S1131C5008959B01AC010A2E069457954795379534
S1131C602795BA95C9F7620F731F841F951FA01D8E
S1131C7008952F923F924F925F926F927F928F922C
S1131C809F92AF92BF92CF92DF92EF92FF920F9307
S1131C901F93CF93DF93CDB7DEB7CA1BDB0B0FB611
S1131CA0F894DEBF0FBECDBF09942A8839884888CE
S1131CB05F846E847D848C849B84AA84B984C88464
S1131CC0DF80EE80FD800C811B81AA81B981CE0F5B
S1131CD0D11D0FB6F894DEBF0FBECDBFED01089540
S1071CE0F894FFCFA2
S1131CE44750524D43002C0053494E4441544F53E2
S1131CF400496E696369616E646F2E2E2E007B2524
S1131D04733A25733A25733A25733A25737D000D86
S1051D140A00BF
S9030000FC
